:1000000001C0DEC0112480914000882309F444C05F
:10001000282F30E083FD03C02D7F232B31F4809304
:1000200040008CBB80E0B4D0EBC0A895019A099A3F
:1000300081E080930102809182128370813081F58A
:1000400089EB90E0809308089093090881E0809301
:100050000B0883E0809307081092050880EC8093DA
:1000600006088BE095D0259A88E08150E1F4A895A8
:100070000DE983E0D82E80D0813409F57DD0182F8A
:1000800090D081E0123821F089E0113809F083E046
:100090006CD080E16AD0EFCF81E080934100C5CF82
:1000A00087EE90E0CFCF359A2EEC36E5A89590916B
:1000B000040897FDDDCF21503109C1F7D6CF823436
:1000C00019F484E176D0E5CF853411F485E0FACFD8
:1000D000853531F451D0C82F4FD0D82F62D0D9CF29
:1000E000863521F484E065D080E0D2CF8436B9F43F
:1000F00043D042D0182F40D0863479F4D0583CD029
:10010000888321961150D9F74CD004BFD0920010AB
:10011000809102108370E1F7BCCFDC5EF0CF8437B2
:1001200091F42AD029D0182F27D0F82E3AD086E47F
:10013000F81207C0D0588881219617D01150D9F7EE
:10014000A8CFDC5EF8CF853751F42BD08091001119
:100150000CD08091011109D08091021199CF813585
:1001600009F0BCCF81E014D0B9CF9091040895FF7D
:10017000FCCF8093020808958091040887FFFCCF8C
:10018000909101088091000892FD01C0A895089502
:100190009091010190FDFCCF98ED94BF80930001F8
:1001A0000895EADF803219F081E0F2DFFFCF84E1C9
:1001B000DCCFCF93C82FE0DFC150E9F7CF91F1CF6B
:1001C000683048F48DE984BF60930010809102107C
:0C01D0008370E1F70895FC01408308955E
:0201FE000109F5
:00000001FF
