:1010000000100020AD32000091320000A932000033
:1010100000000000000000000000000000000000D0
:1010200000000000000000000000000091320000FD
:101030000000000000000000913200001D3300009D
:101040009132000091320000913200009132000094
:101050009132000091320000913200009532000080
:1010600091320000B51B0000A51B0000913200006A
:101070009132000091320000913200009132000064
:1010800091320000913200009132000010B5064C00
:101090002378002B07D1054B002B02D0044800E039
:1010A00000BF0123237010BDA0010020000000003C
:1010B0008C3D0000044B10B5002B03D003490448BD
:1010C00000E000BF10BDC04600000000A4010020E9
:1010D0008C3D0000E12110B50248490200F05EFF9E
:1010E00010BDC046680400207047000010B5040021
:1010F0000100024800F0C8FE200010BD6804002076
:1011000010B5024800F0F2FEC0B210BD6804002025
:1011100010B5024800F0C8FE10BDC04668040020AB
:10112000F8B5451E07000C0000F084FC0600EDB287
:101130000F4800F057FC03231842F9D1300000F0AB
:1011400093FC280000F026FC0A4E3D1933199879CB
:1011500000F09BFCEDB20134E4B2AC4206D033198E
:10116000987900F0AFFC00F0CBFCF4E72000F8BD6C
:1011700002100000C001002070B5FFF7C1FF1B285E
:1011800001D0002070BD224900F08EFC0026040032
:10119000FFF7B6FF1F4D2100A85500F085FC013672
:1011A0000400062EF4D1E122EB78A9781B0252004C
:1011B0000B439342E5D8FFF7A3FF0E28E1D12100AE
:1011C00000F072FC00260400EA78AB7812021A43A1
:1011D0002B791B041A436B791B0613439E420AD2D8
:1011E000FFF78EFFAB192100987100F05DFC01360E
:1011F0000400B6B2E8E7FFF783FF0500FFF780FFC2
:1012000003022B439BB21B1B58425841C0B2B9E7A3
:10121000FFFF0000C001002070B51B20FFF766FF34
:10122000184900F041FC00250400174E705DFFF7DF
:101230005DFF210000F038FC01350400062DF4D1DB
:101240000E20FFF753FF210000F02EFC00250400C4
:10125000F378B2781B021343AB420AD97319987919
:10126000FFF744FF210000F01FFC01350400ADB280
:10127000EEE7E0B22412FFF739FFE0B2FFF736FFE6
:1012800070BDC046FFFF0000C001002010B5FFF791
:101290003FFF024B1878FFF727FF10BDBF0100206A
:1012A0000122034B9A7000229871DA707047C04691
:1012B000C001002010B5022404220E4B01201C7036
:1012C0000D4B1A7000F02AFC0821032000F06EFB81
:1012D0008021200000F06AFB00231D21074A0848F6
:1012E0009170D370074A195CD15401331D2BFAD188
:1012F00010BDC046BE010020BF010020C00100207B
:1013000060000020C601002010B51C4BD8790138C0
:1013100005282ED802F096FA030B172D1F2503225D
:101320009A700022DA700132DA711A7208E005212F
:10133000002299700131DA70DA7119725A72997259
:1013400081229A7118E002229A700022DA700C4A07
:101350001278DA71F4E702229A700022DA70094AF0
:10136000F6E703229A700022DA708832DA71753A51
:10137000DBE7A120FFF794FF10BDC046C0010020AD
:10138000BE010020BF01002010B5094BDA79032A05
:1013900003D0052A08D0A12003E01A7A054B80204B
:1013A0001A70FFF77DFF10BD1A7A034BF7E7C046AE
:1013B000C0010020BE010020BF010020074B10B576
:1013C0001A00FA321178064AFC3311701A78054B6C
:1013D00080201A70FFF764FF10BDC046C0010020D6
:1013E000BC010020BD0100200B2010B500F0EDFA7B
:1013F000EF23184008280AD082280AD00222074B7F
:101400009A700022DA70A5329A71D87104E000F067
:10141000B1FA8020FFF744FF10BDC046C001002094
:1014200070B50B2000F0D1FA174C082808D0022321
:10143000A3700023E370A533A371A43BE37170BDD7
:10144000637A257A1B021D43637B207B1B022EB22D
:101450001843013E00F008FBF0B200F09BFA00F0E8
:10146000F9FA0226E071AE4206D800F049FBA31952
:1014700001369871B6B2F6E70135ABB21B0AE370DC
:101480008223A570A371DAE7C001002070B50500C2
:10149000552000F017FBE02000F014FB0824013C6D
:1014A0002878E4B200F00EFB0135002CF7D170BDB6
:1014B00010B500F05FFA0B2000F087FAEF23184018
:1014C000082806D082280DD10B48FFF7DFFF00F077
:1014D00051FA80200421400100F095FA8020FFF7A6
:1014E000DFFE10BD0222054B9A700022DA70A53291
:1014F0009A71D871F5E7C04691000020C001002024
:1015000070B5164AD379052B05D8032B0FD8002BBD
:1015100005D0A0201EE0063B012BFAD870BD104874
:10152000FFF7B4FF00F026FAFFF7C2FFF6E7032645
:10153000157A547A0B4800F055FA3042FAD120025D
:10154000FF21284300F05FFA80200221400100F0D3
:101550005AFA8020FFF7A4FEE0E7C046C001002051
:10156000890000200210000070B5050000F062FA4A
:10157000040080202900400100F045FA200000F01E
:1015800073FA70BDF7B50B2000F01FFA394B08282D
:1015900008D002229A700022DA70A5329A71A43A19
:1015A000DA71F7BDDA79587B11001D7B00024031FA
:1015B0000543C9B22EB2012929D82F4A1778012232
:1015C0000092587A1C7A0002044323B22800019347
:1015D000764200F049FA781E0640F6B2A64201DDD6
:1015E0006B461E790A25002E09D029003000FFF72E
:1015F00097FD0500A41BA4B20098FFF7B5FF002CCF
:101600002FD0BEB2BC422ED329003800EFE71B49D1
:101610000F78B32A05D8B12A0ED8A220FFF740FED2
:10162000BFE7C12A03D8BF2AF7D90322C8E73C3253
:10163000D2B2012AF1D8F8E71C7C114800F014FA64
:10164000200000F022FA002000F01FFAF0B200F0B3
:101650001CFA280A00F019FA80200721400100F046
:10166000D2F98020DAE72900E0B2FFF759FD002423
:101670000500C1E7C0010020BC010020BD01002021
:101680000610000010B50121002001F019FFFFF73E
:1016900021FD00F07BFA044B04481A88044B1968BA
:1016A00001F090FD10BDC04686000020D40300204C
:1016B000800000209F4BF7B51B78002B00D0D6E0B0
:1016C0009D4D280001F074FC9C4C061E13D0200098
:1016D00000F0D8FBB04203DA200000F0D3FB060094
:1016E000974F32003900280000F0BBFB3200390070
:1016F000200000F0DFFB200000F0D0FB061E13D01E
:10170000280001F066FCB04203DA280001F061FC19
:1017100006008B4F32003900200000F040FC320000
:101720003900280000F080FA200000F05DFC854FB1
:101730003B7883420FD0F022834E200033889343BE
:10174000338000F051FC0122804B38701A709042B7
:1017500039D002283CD0200000F04CFC7C4F3B7874
:10176000834215D00F22784E200033889343338074
:1017700000F040FC0122754B38701A7090422AD05C
:10178000022828D0002803D1032332881343338052
:10179000200000F035FC6F4F3B78834223D06A4E27
:1017A0006D4A338820001340338000F029FC012269
:1017B000664B387005381A70032814D8328802F046
:1017C00041F80E4E51531023328813433380C2E741
:1017D00030233288F9E7338818433080D8E78023F4
:1017E0005B001343338096235C4EDB0032689A42E1
:1017F00015D1200000F00AFC019000280FD101F063
:101800009BFD574F3B68C01AC82808D90123494A95
:10181000137001F091FD534B1860019B3B60200059
:1018200000F0DCFB3368984203D1484B1B78002B57
:1018300014D0200000F0EAFB00280FD0200000F0B8
:10184000CDFB3060280001F0A5FB3F4B28001A8833
:10185000316801F0B7FC00223C4B1A70F7BD8023C1
:101860009B00BEE7C023FBE78023DB00B9E7314BD9
:101870001B78002BF2D03A4C2368002B1CD101F0CE
:101880005BFD384B1B68C01A374B98421CD8FFF7DA
:1018900073FC0028E2D0354B987915281CD801F04C
:1018A000D1FF2F1F2926423F1D1D381D1D2C3C1D19
:1018B0001D381D1D1D1D2C3201F03EFD2368C01A70
:1018C000FA235B009842DAD900231A4A13700122E6
:1018D000224B52421A60C1E7342827D0A02019E0D9
:1018E000FFF7E8FCFFF798FCFFF7D0FCB6E7FFF73F
:1018F0000BFDF7E7FFF748FDF4E7FFF7D9FDF1E748
:1019000004221B4B1A70FFF76FFD01F015FD2060DC
:10191000E8E78020FFF7C4FCE4E7FFF74FFDE1E7CD
:10192000FFF77EFDDEE7FFF72DFEDBE7FFF7E8FDC3
:10193000D8E7C046CA030020D40300206804002072
:101940008A030020880000208600002089030020F0
:101950008803002084000020FFF0FFFF80000020AB
:10196000CC030020D003002060EA0000C00100206A
:10197000BF01002010B55921082000F017F8002100
:10198000082000F013F80E240B2000F01EF820426F
:10199000FAD010BD10B50400552000F093F8A02037
:1019A00000F090F8200000F08DF810BD70B5040034
:1019B00055200D0000F086F820004038C0B200F03D
:1019C00081F8280000F07EF870BD10B504005520A5
:1019D00000F078F820008038C0B200F073F800F012
:1019E0008FF810BD10B50400552000F06BF80420EE
:1019F00000F068F8E0B200F065F8200A00F062F844
:101A000000F07EF810BD70B504000D00552000F008
:101A100059F8442000F056F8E0B200F053F8200ADC
:101A200000F050F800F06CF8280000F04BF800F0DF
:101A300067F870BD10B5552000F044F8292000F07B
:101A400041F800F05DF8040000F05AF8000220436D
:101A500080B210BD10B5552000F034F8242000F0FD
:101A600031F800F04DF810BD10B50400552000F01D
:101A700029F8692000F026F8E0B200F023F8200AE7
:101A800000F020F800F03CF810BD10B5040055201F
:101A900000F018F8642000F015F8200000F012F8AB
:101AA00000F02EF810BD0000FF224840044BC0B2E9
:101AB0004000C35A09125940C8B2934318437047B3
:101AC000903A000070B50D4D01000400280001F0AF
:101AD0000DFB280001F071FA01F02EFC0600280031
:101AE00001F066FA002804D101F026FC801B1328BF
:101AF000F5D9280001F072FA200070BD180400200A
:101B000010B5054C200001F053FA0028F9D0200050
:101B100001F064FAC0B210BD18040020962170B51F
:101B2000174C0500174A2000490001F04BFB002D1F
:101B30001BD0012D0DD10021200001F0D7FA20008B
:101B400001F03BFA0021200001F0D0FA200001F062
:101B500034FA0F2001F0F6FB200001F029FA051EEF
:101B600005D0200001F03AFAF6E72900EBE7E12181
:101B70002000054A890201F025FB280070BDC046FF
:101B8000180400201304000031040000E12110B506
:101B9000024A0348890201F015FB10BD3104000020
:101BA0001804002010B5024801F060FA10BDC046CC
:101BB000D403002010B5024801F058FA10BDC04609
:101BC00018040020F7B5002601240F4D0F49280006
:101BD00000F03CF80E4F0F49380000F037F80E497E
:101BE0000E4800F033F839002300019602220094D9
:101BF0000B4801F00FFA29000196032304220094F8
:101C0000084801F007FAF7BD5C0400200008004214
:101C100060040020000C0042001000426404002018
:101C2000D403002018040020F8B505000E001700AA
:101C30000024BC4208D02B682800315D1B689847FF
:101C4000002801D00134F4E72000F8BD016070479E
:101C50009446F0B505AC25789C1E621E9441624600
:101C600006689207376824063A4322430724326005
:101C700000682140AD01002442682943022B00D0B6
:101C80005C030A4322434260F0BD30B5C0250368BF
:101C9000AD031C6812052A402243C0240904A40293
:101CA00021400A431A6003685A6814435C6030BDDF
:101CB0000123026811680B43136003681A68D20796
:101CC000FCD4DA69D207F9D470470223026811689C
:101CD0000B4313600268D3699B07FCD47047036809
:101CE0001A7ED20702D41A7E9207FCD570470022D2
:101CF00003685A8370470368187E4007C00F704717
:101D00000368187EC0097047802302685B42117E19
:101D10000B43137670470368187EC007C00F7047E7
:101D20000368188DC0B2704703681A7ED207FCD5CD
:101D300089B2012019857047012203689A7570479E
:101D4000012203681A7570470368194A30B5934237
:101D500027D0184A934227D0174A934220D10B2309
:101D60001021032501229A402B40AB40C224FC35B0
:101D70009D401248A40002600259AA43C0259D401C
:101D80002B00134380220351D2010D4B0A435A808A
:101D90000C4A11680C4A11605A7852B2002AFBDBD7
:101DA00030BD09230E21DCE70A230F21D9E7C04605
:101DB00000080042000C00420010004200E100E078
:101DC000000C0040140100209C000020F8B5040025
:101DD0000F0016001D00FFF7B7FF2000FFF768FF98
:101DE0001C21BB000B4071072268090C0B431360D8
:101DF000842322689375012F1AD11021012E00D05F
:101E000008390C4B69431868C00001F025FD072212
:101E1000216802408B895203DB04DB0C13438B8166
:101E2000226803049089DB0C400B40031843908127
:101E3000F8BDC0469C00002010B5040001F07CFAFB
:101E4000E060236820005B699847002808DA01F009
:101E500073FAE368C01AA3689842F2D301204042A3
:101E600010BDF8B506000D0017000024BC4207D0D5
:101E70003000FFF7E1FF002802DB28550134F5E7C9
:101E80002000F8BD3F20704713B56B460268D9713A
:101E90000733546819000122A04716BD10B502216E
:101EA000006900F061FC10BD10B50321006900F06D
:101EB00071FC10BD10B5130004000A000069032175
:101EC00000F060FD002801D10123636010BD000017
:101ED00010B5054C03002068421C04D11A68180094
:101EE00052699047206010BDE8000020074A0300B7
:101EF000106810B5411C03D001235B42136010BD74
:101F00000221186900F030FDF9E7C046E800002022
:101F100010B503783A22023303700249024800F0F8
:101F2000DDFD10BDAC0000208404002010B5027857
:101F30004378A12A0AD1212B01D0002005E00722F5
:101F40001349144800F0CAFD012010BD212AF4D124
:101F5000202B10D10E490F481A3A00F05FFC962250
:101F60000B4BD2001968914202D1DB79DB07E4D533
:101F700001F09EFBE1E7222B03D18278044BDA715A
:101F8000EDE7232BD9D14288034B1A60D5E7C04631
:101F9000A400002084040020A00000207047F7B5B2
:101FA00005001700019101F0C7F90024E860BC4268
:101FB00011D2019A022128693B1B121900F068FC1A
:101FC000061E01D0A419F2E701F0B6F9EB68C01AB9
:101FD000AB689842F6D32000FEBD0000014B1868A4
:101FE0007047C046A4000020014B1879C0B270476A
:101FF000A4000020014B5879C0B27047A400002013
:10200000014B9879C0B27047A4000020024BD879E8
:10201000012318407047C046A4000020FA22002186
:10202000054B92009A60054A08321A60044A5960CA
:102030001A6119767047C04668040020E43C00002D
:102040008404002070B50F26CB1D02003240D5B2AB
:102050002C0000093034092A00DD07341C705A1E98
:10206000994200D170BD1300EFE7000070B58229DE
:102070001FD1C3B22B4D5A01AA1891692A4C800175
:102080000C40C0218905214391612849083340183B
:10209000802150612A685B01D018047949422143AC
:1020A00001717020995C81430800302101439954EB
:1020B00070BD0029FCD1C0241A4EC3B25901711859
:1020C0008A68194DA4052A4022438A60184A800173
:1020D000801832680726083348605B01985CB0437B
:1020E0000600012030439854886905402C438C61D8
:1020F00070240E484861985CA043040010202043DF
:10210000985488680B4CD318044080204022400328
:10211000204388608868800B8003886059790A436F
:102120005A71C5E7BC070020FFFFFF8FB0040020F5
:10213000B0050020FF3F00F070B50400012320CC63
:1021400000212A782000134380222B70520001F0D6
:1021500002FCAB78DB07FCD46C6270BD1F22144B11
:1021600070B51B68590B9C0C9B0111405B0F224002
:102170001F2900D11A391F2A00D1023A072B00D19A
:10218000043B1F2500688E01048D0A492A40214026
:1021900031430185018D14000A00AA4322430285C0
:1021A000028D1903044B13400B43038570BDC046D9
:1021B000246080003FF8FFFFFF8FFFFFEFF31083E5
:1021C00003600123436072B670470368002B02D19D
:1021D00062B6BFF36F8F704737B505690400684674
:1021E000002D14D1FFF7EAFF019B621D013B02D3D2
:1021F000D57FEDB2FAE768460193FFF7E6FF002DC1
:1022000001D100203EBD206AE369C01AFAE7FFF75A
:10221000D5FF22000025019B3432013B02D3157803
:10222000EDB2FAE768460193FFF7CFFF002DE8D043
:10223000206BE36AE9E70000F0B5FF25012642685C
:10224000836811682B405B01CC186419A77AD318F6
:102250003E43A672C6689C680B4FB60436093C40E4
:1022600034439C6083682B405B01D2189468A40BB4
:10227000A4039460402283682B4008335B01CB1891
:1022800019790A431A71F0BDFF3F00F0F7B50569EF
:1022900004000E0017006846002D43D1FFF78EFFA3
:1022A000019B601D013B5A1C0BD0C27F591E002AA6
:1022B00005D168460193FFF788FF2800FEBD0B009B
:1022C000F1E768460193FFF780FFE369AF420AD068
:1022D000226A9A4207D95A1CE261A269D3181B7874
:1022E00073550135F1E7226A9A42E6D10023E36192
:1022F000013368462361FFF761FF22000021019B43
:10230000671D013B3532581CD3D0F97710785E1E1B
:10231000002805D0200011700193FFF78DFFECE736
:102320003300F0E7FFF74AFF2000019B3430013B08
:102330005A1C06D00278591ED5B2002AB9D00B001B
:10234000F6E7684601930025FFF73FFFE36ABD42C9
:1023500002D0226B9A421CD8226B9A42ADD1002344
:102360006846E3622361FFF729FF2700220000216E
:10237000019B3437013B3532581C9AD039701078A4
:102380005E1E00280DD0200011700193FFF754FF4E
:10239000EBE75A1CE262A26AD3181B787355013529
:1023A000D4E73300E8E7F7B582684368D2B211009A
:1023B00004000831186849014118C879C00729D5B7
:1023C00001255201CD719B189A6861699204920CA3
:1023D000002923D12262226A002A41D0A26A6561C3
:1023E00068465A60FFF7EAFE342294462200019BB9
:1023F000671D013BA4443532591C2DD06146FD7741
:102400000978581ECEB2002905D001936846157090
:10241000FFF7DBFEF7BD03001670EDE72263226BCA
:10242000002A1DD0002227006261A26968465A6016
:10243000FFF7C4FE019B621D9446013B34373032E6
:10244000591C09D061463D70C97F581ECEB2002983
:10245000DBD103001670F3E768460193FFF7B5FE82
:102460002000FFF7E9FED5E713B56A4600230C000C
:10247000D01DD371FFF74CFD23681818206001F0C0
:10248000CDF96B46D91D01F086F9236818186B4603
:102490002060D87916BD000003290ED180220E4B92
:1024A00062311B68FF31585C524202435A54682221
:1024B0006339FF32FF39995470470129FCD18022DA
:1024C000054B24311B68FF31585C524202435A5479
:1024D00028222339FF32EDE7BC07002070B5002425
:1024E000274B0121050020001C7000F0E9FF0121AD
:1024F000200000F0E9FF234B012120001C7000F0B8
:10250000DFFF0121200000F0DFFF20231E4A05200D
:10251000D1690B43D3610F2101F028F80F21062068
:1025200001F024F8194B1A4A5A805A7852B2002AFC
:10253000FBDB184800F0FAFE174C2000FFF7FCFD0B
:102540002000FFF70BFE7F212368C1201A7880004E
:102550000A401A70042219780A430C211A701A8949
:102560008A430E491A810A581202120A0A5080221E
:102570000A6019787E3A0A431A7001232B7070BDE5
:10258000A5040020A404002000040040000C00402A
:1025900006400000612F0000BC07002000E100E0C1
:1025A0000078002810D00121084B1B681A898A4343
:1025B0001A810822198B0A431A830422198B0A43B1
:1025C0001A830022024B1A607047C046BC070020E5
:1025D000B40700200A000E498B699B0B9B038B619B
:1025E0000B680221FF33197298798239014399717E
:1025F000197A8907FCD57F20064B0240997A8143DE
:10260000114380229972997A52420A439A72704712
:10261000BC0700200050004110B50B790C00002BC6
:102620000CD10800FFF782FC002801D0012010BD6A
:10263000094A93699B0B9B039361F7E701F0EEF85E
:10264000210001F0DBF80028F0D1034A93699B0BCD
:102650009B039361EBE7C046BC070020F7B50C0075
:102660001100832A19D1E3B2314D5A01AA18916998
:102670003048A4010840C0218905014391612E49D9
:10268000286864187021083354615B011A5C8A431E
:10269000110040220A431A54F7BD022A44D1A30074
:1026A0000193264BA200D658002EF5D1382000F019
:1026B00085FE8027224B7F0003601D4B066243602E
:1026C000431D846006614661C661C760DE772F33B3
:1026D0000500C66206631E7038005E7001F028F9BE
:1026E0000600A861380001F023F9E4B2104A630142
:1026F000A862D3189A680F4907201140C02292059A
:102700000A439A600A4A083412686401A15C814352
:10271000080003210143A15428005E60FFF78CFDEF
:10272000064B019AD550B7E72000FFF79FFCB3E7AF
:10273000BC070020FFFFFF8FB004002088040020AA
:10274000143D000070B505000124064BA200D258CC
:10275000002A05D021002800FFF780FF0134F4E7AC
:1027600070BDC046EC000020084B8A00D05810B560
:10277000002803D003689B68984710BD044BC9B27A
:102780004901591888688004800CF6E78804002005
:10279000BC07002010B50C00FFF7E6FF00280CD0A6
:1027A000064BE4B219688023083464010C1962797D
:1027B0005B42134363710223E37110BDBC07002029
:1027C00070B5CBB2124A13485C018901891802190D
:1027D00051609168104D08330D40802189022943D2
:1027E000402591609168890B8903916001685A01C5
:1027F0008A1816793543157195796D06FCD55B01FC
:10280000C918CB79DB07FCD500198068C0B270BD50
:10281000B0050020BC070020FF3F00F070B5140099
:1028200040220B4B0D001B68FF3359790A435A7144
:102830000021FFF7C5FFA04200D920000023054971
:10284000A34203D0CA5CEA540133F9E770BDC04625
:10285000BC070020B005002010B50C48C9B24901E2
:10286000421893689B049B0C3F2B0BD99468403B08
:102870009B04A40B9B0CA40323439360411888681A
:10288000C0B210BD93689B0B9B03F6E7BC0700200A
:10289000F0B51C002F4B85B01B6806000D0001929F
:1028A000002B54D02C4F3B78D8B2002B02D1010022
:1028B00000F00AFE64233B70284BAA00D058002881
:1028C00008D0036822005B68019998470400200043
:1028D00005B0F0BD29003000FFF746FF844204D95F
:1028E00029003000FFF740FF040029003000FFF707
:1028F000B3FF0121EBB21A4F03935B010293029ADB
:102900003B6801989B18FF335A7A0A435A72154B59
:10291000A9012200C91801F015F8002CD7D0290010
:102920003000FFF721FF0028D1D14021039B3A68F6
:1029300008335B01D3181879014319710121D9714A
:10294000029BD318FF339A7A0A439A72BFE7012495
:102950006442BCE7B4070020A404002088040020DF
:10296000BC070020B005002013B56B46DC1D22001B
:102970000123FFF78DFF012801D1207816BD01202A
:102980004042FBE7F0B51C003A4B85B01B680E00D7
:102990000192002B3FD08023DB019C423BD8364D77
:1029A0002B78D8B2002B02D1010000F08DFD6423FA
:1029B00000272B70314BB201D3180293002C2CD07E
:1029C0002F4B1B680393FF2333401D0000930835F2
:1029D000039B6D015D19AB79DB0921D0294B2A4995
:1029E000186800F039FF294B1721584300F034FFD5
:1029F000274BEA79920713D49A5D002A01D1013856
:102A0000F7D201229A55009B5A011D4B9B189A69D7
:102A1000920B92039A6101277F42380005B0F0BD06
:102A200000221B4B25009A553F2C00D93F252A0038
:102A30000199029800F086FF009BA9045A01104BEF
:102A4000890C9B18029A7F195A619A69641B920B30
:102A500092030A439A61009B039A08335B01D318DF
:102A60000222DA715979823A0A435A71019B5B1941
:102A70000193A3E7B4070020A5040020B0040020C0
:102A8000BC0700201401002040420F00701101001B
:102A9000A704002070B50C001D000D4BA601F61810
:102AA000110030002A0000F04DFFE4B2094A640131
:102AB00014196661A369084928000B40A361A16944
:102AC000AB04890B9B0C89031943A16170BDC046FF
:102AD000B0040020BC070020FF3F00F0F7B5104B0A
:102AE0000F001B7814000190002B0CD10D4B160029
:102AF0001D78002D09D00C4E0C48358828182D194A
:102B000000F020FF35802000FEBD002EFBD03300FA
:102B10007A1900210198FFF7BDFF2D18361AF4E746
:102B2000B0060020B1070020B2070020B106002047
:102B3000F8B500200D00140000AF012A27D9D31DDD
:102B40006A46DB08DB00D31A9D46080000F07CFFD4
:102B50006E46032302220021013040003070737062
:102B6000A2420DD2287800280AD0531CDBB20135CE
:102B7000B0549C4203D00232F154D2B2F0E72200AA
:102B800031000448FFF7AAFF431E9841C0B2BD467A
:102B9000F8BDC04684040020F0B50025012785B0AB
:102BA000184B0E0069461F7004000095FFF75CFC8F
:102BB000154B01A90B806A3BFF3BCB715A330B725B
:102BC000009B320009334B800E4B8D714F710871A1
:102BD0001D70092E0FD00D4E092237700C4F2000AA
:102BE00000953D80FFF77AFF69462000FFF73CFC27
:102BF0003A88084935702000FFF770FF012005B0C2
:102C0000F0BDC046B006002009020000B107002058
:102C1000B2070020B106002070B5CE7805000C0088
:102C200092B0022E08D1C9882B48FFF7B5FF431E8A
:102C30009841C0B212B070BD00F0F0FD210000F06C
:102C4000BEFD002803D0C317181AC00FF2E7012EEB
:102C50000BD1E2882149112A10D8D2B2002A0DD016
:102C60002800FFF73BFF0120E4E7032EE2D1A37821
:102C7000002B05D1E2881A49032AEED90A78EFE73A
:102C8000022B05D1A27917492800FFF751FFD1E7A0
:102C9000012B02D1A2791449F6E7032BCAD1134BB9
:102CA00001A91868FFF7CEF9114B03A91868FFF7BF
:102CB000C9F9104B05A91868FFF7C4F90E4B07A90D
:102CC0001868FFF7BFF900F0A9FD09A900F087FD1A
:102CD000A27901A9D8E7C04684040020443D000041
:102CE000343D0000203D0000383D00000CA0800075
:102CF00040A0800044A0800048A0800073B506007A
:102D000048780D000B2810D800F09CFD061B0F31F1
:102D10000F474C7450536D70097801AA002906D1F1
:102D2000022311803000FFF7B5FE012076BD00239D
:102D30001380314B1B78012B00D11370022300212B
:102D4000F0E78A780023012A09D16A4693802B4B49
:102D50001B78012B00D11371022301AAEFE7264A49
:102D60001370274A93699B0B9B039361DDE78C7873
:102D7000012C07D1214B01AA1C70224B1B78137028
:102D80002300DCE7002C08D101201B4B1C4A1870E3
:102D900093699B0B9B039361C8E73000A978FFF709
:102DA00019FCC2E73000FFF737FFBFE70123164ADF
:102DB000C5E70B780020DB06B8D13000FFF7C2FC76
:102DC0002A200221AA78104BFF301A600C4A13689F
:102DD0001C5C21434A241954FF34195D2938FF38FB
:102DE00001431955D4E70123084AA8E78A78074B1D
:102DF0001A60B6E7002099E7A6040020AE04002080
:102E0000BC070020083D0000B4070020B8070020E0
:102E10004B4BF7B51C780700002C00D08FE0494ED3
:102E200033689B8B1B070ED521002000FFF71EF98E
:102E3000326810231100FF31887A03438B72424BB2
:102E40001C600823938333689A8B52071FD5042292
:102E50009A833E4A1378002B0AD01378013BDBB2E9
:102E600013701378D8B2002B02D1012100F02CFB93
:102E7000374A1378002B0AD01378013BDBB213706A
:102E80001378D8B2002B02D1012100F01DFB33686A
:102E9000FF331A7AD2061ED510221A7259793032AF
:102EA0000A435A7160232B4938000A781A423BD1F1
:102EB000FFF724FF3368FF33002838D08022997948
:102EC00052420A439A711A7A520604D540221A7263
:102ED000597A0A435A72336807241D8C01239D4393
:102EE000EDB20193E1B2002D29D0002C27D02B00A8
:102EF0002341019A134215D02300326808335B0145
:102F0000D318DA79D20702D4DB799B0707D5124BA5
:102F1000A200D05800280ED003681B689847019B78
:102F2000A3409D43013CDDE7FFF776FBC2E720218C
:102F30000A4A9171C7E73800FFF7AEFAEFE7F7BD2D
:102F4000B1070020BC070020B4070020A504002022
:102F5000A4040020B005002088040020FF50004198
:102F600010B50248FFF754FF10BDC046840400208E
:102F7000014B024A1A607047BC0700200050004114
:102F80000120704710B50368014A1B6A984710BDBD
:102F90001304000010B504000069FEF789FE20004C
:102FA000143000F0B9FB2000203000F0B5FB10BD5C
:102FB00010B5143000F0C5FB10BD10B504002000A2
:102FC000203000F0BEFB0028F9D12069FEF787FE13
:102FD00010BD10B5203000F0BAFB10BD70B5060072
:102FE00004001436300000F09BFB230030331B78C4
:102FF0000500FF2B07D0300000F0A9FB0A2802DDF6
:10300000A36BE26B1A60280070BD10B5143000F09D
:10301000ACFB10BDF7B51D0008AB1B780400009396
:1030200009AB1B781600019300234360FA239B0031
:1030300083600D4B0F0008330360143000F050FB29
:103040002000203000F04CFB2300009A2C33276135
:103050009A70019A1E70DA7022005D70FF23303280
:10306000200013701374FEBD583D000070B50400BD
:103070000069FEF740FE002815D025002069FEF704
:103080004FFE14350100280000F039FB23003033D7
:103090001B78FF2B07D0280000F059FB092802DC21
:1030A000636BE26B1A602069FEF735FE00280DD0D5
:1030B00025002035280000F044FB002812D028000D
:1030C00000F02EFBC1B22069FEF72EFE2069FEF74C
:1030D00017FE002805D02069FEF716FE2069FEF7CE
:1030E00006FE70BD2069FEF72BFEEFE7F8B5040081
:1030F00000690D002600FEF70EFE2036002834D1B0
:103100003F27300000F03CFB002825D0EFF3108370
:103110000122134211D1EFF305831A003A403B42DA
:10312000EFD0103A53B2002A10DA0F221340083BB6
:10313000134A9B089B009B181B682069FEF7EBFD58
:103140000028DED02000FFF791FFDAE79B080D4A48
:10315000C0339B009B58F0E73000290000F0CFFA05
:103160002069FEF7E9FD0120F8BD300000F0E9FA22
:103170000028C5D129002069FEF7D6FDF3E7C04637
:103180001CED00E000E100E0F0231B01194080236A
:1031900006209B0099420AD00133FF330130994247
:1031A00005D0802300205B00994200D10530704794
:1031B0000F2001400020012903D00239481E81411F
:1031C000481C70470300F0B5040085B003912C3310
:1031D0000E211878150000F0C9F9230026002D33C0
:1031E00018780E212F3600F0C1F93378022B07D161
:1031F000230040331878FF2802D00E2100F0B6F9E2
:10320000270030373878FF2814D0012100F058F912
:103210000C213B781B4A59438B5C52185178012290
:103220008A401948DB01181860631848E2631B18CC
:10323000A3631A600122039B11002069FEF7C6FDFB
:1032400029002000FFF7A0FF290007002000FFF75A
:10325000AFFFF0221540303D6A425541030039006E
:10326000206901220095FEF7F3FC23002E331A7823
:1032700031782069FEF709FD2069FEF726FD05B0CB
:10328000F0BDC046903C0000184400411444004189
:10329000FEE70000034B10B51B68002B00D09847D9
:1032A00010BDC046C00800200DBEFEE7134A1448FA
:1032B000110010B5134B824202D0934212D1130079
:1032C000824212D10222104B5A62104B0832DA703D
:1032D0000F4B20329A7300F085F800F04FF8FEE7AC
:1032E00010CB10C18142FBD3EAE70A4A8B42E9D0F6
:1032F0000021094B9A42E5D202C2FBE70000002000
:10330000A0010020903D0000FC70004100500041F1
:1033100000480041A0010020E808002010B500F09E
:103320002AF8002801D100F01BF810BD014B1860ED
:103330007047C046C0080020014B18687047C0465F
:10334000C408002070B5041E07D0044D2E6800F09C
:1033500011F82B689B1BA342F9D370BDC408002051
:1033600010B5034A13680133136000F0A9F910BDCA
:10337000C4080020704700207047704710B500F067
:103380006FF800F0B1FAFFF7F8FF0120FFF7DAFF5E
:10339000084C2000FFF7A2F82000FFF701F9FEF724
:1033A00071F9FEF787F9044B002BFAD000E000BF5B
:1033B000F7E7C046840400200000000010B500F0CC
:1033C000B7FA10BD024A53785BB2002BFBDB7047A3
:1033D000000C004010230249CA681A42FCD0704712
:1033E00000080040822210B5154B164C5A60A38C81
:1033F000023A9343A384FFF7EDFF8022124B920021
:103400001B689B0E9B021343A362104BE362922343
:103410005B00A384FFF7DEFF0223A28C1343A38487
:10342000FFF7D8FF80230A4C5B00A360FFF7CAFFB9
:10343000084B6360FFF7C6FF074B084A1A6010BDD0
:1034400000400041000800402460800080BB0A7CEE
:10345000000C00400007030014010020006CDC0297
:10346000C0201249124B134A10B54B60136A000674
:103470001B021B0A03431362002407238C600B60AA
:103480008021136A09061B021B0A0B4313620A4BB5
:10349000196A1A6A1143094A0A431A6220001A215A
:1034A000013400F00DF8072CF8D110BD10E000E059
:1034B0007FBB000000ED00E000040040FC050000C0
:1034C00010B500F053F810BDF7B50C224243244D5F
:1034D0000191535D042B2DD00027AA185278214E5C
:1034E000DB01D418A419204E24789E59E4B2BE42C0
:1034F00003D0013797407E1EB7411B4E9E19366997
:10350000B44600266146B14203D001369640711E92
:103510008E41002F17D10C37784301992D18686818
:1035200001290DD1012E06D1410706D4D3180D4A29
:103530009B181C70F7BD0107F8D504210C43F5E773
:1035400004218C43F2E701209040019A012A03D123
:10355000054A9B189861EDE7034A9B185861E9E713
:10356000903C000040440041004400410C22504384
:10357000494B70B5C65C1B185C78DD78042E00D111
:1035800087E0081F172842D800F05CF90C31313170
:10359000414141413333393D3D4141414141413F49
:1035A000418341830023002E33D0F0013B4E22188B
:1035B00092191678042232404E1F022E3BD82D0756
:1035C00001D540252A4372B6002901D01A2935D1E8
:1035D0000123A340324941184B608B6104239A4375
:1035E0002E4923185B181A7062B6002070BD0123A3
:1035F000D9E706232B405A1E93410433D3E7012316
:103600002B400233CFE70623CDE70723CBE709237F
:10361000C9E7022CC9D10629C7D0224A1078002850
:10362000C3D01670204A1078A0431070D079C0091A
:103630000128FBD0B9E702263243C0E78D1E012DD9
:103640000CD80123A340164D45196B60032903D103
:103650006B6104231A43C3E7AB61FAE7012904D184
:10366000A1400F4BC3189960B8E7104965082D18A1
:103670006D18E10707D50F2629781B0131400B4350
:103680002B700123E6E70F262978B14319432970EF
:10369000F7E701204042A9E7903C00004044004188
:1036A00000440041C8080020002800423044004186
:1036B0000122024B52421A607047C0461801002096
:1036C000054A10B51368591C05D0013B1360002B47
:1036D00001D1024B984710BD1801002001000020C5
:1036E00010B50400802000F023F980220021206022
:1036F00000F031F9002320006360A36010BD7F2239
:10370000436810B50133134082689A4203D042687F
:103710000468A154436010BD002343608360704778
:10372000826843689A4209D07F2183680268D25C2C
:10373000836801330B4083601000704701204042D2
:10374000FBE743688068181A00D5803070474268EC
:1037500083689A4204DB43688068C01A7F307047F0
:1037600083684068181A0138F9E7826843689A420A
:1037700003D083680268D05C704701204042FBE7B9
:1037800003007F2240689B6801301040C01A43420A
:103790005841C0B2704770B50E0000254468002C37
:1037A0000BD02368310020005B689847002802DBBB
:1037B000E4682D18F3E701256D42280070BD70B54F
:1037C0000D004468002C08D02368290020009B6865
:1037D0009847002802D1E468F4E7200070BD70B576
:1037E0000C004568002D07D02B6821002800DB68FD
:1037F0009847ED682418F5E7257070BD70B50D0089
:103800004468002C08D02368290020001B689847D2
:10381000002802D1E468F4E7200070BD064A0123C5
:10382000116810B50C0005481C40194203D1044929
:1038300044600180136010BDCC080020D008002037
:103840000204000002B4714649084900095C4900BD
:103850008E4402BC7047C046002934D001230022A8
:1038600010B488422CD301242407A14204D28142FF
:1038700002D209011B01F8E7E400A14204D281420F
:1038800002D249005B00F8E7884201D3401A1A438C
:103890004C08A04202D3001B5C0822438C08A042C3
:1038A00002D3001B9C082243CC08A04202D3001B79
:1038B000DC082243002803D01B0901D00909E3E7F3
:1038C000101C10BC704701B5002000F00BF802BDC1
:1038D0000029F8D003B5FFF7C1FF0EBC4243891A97
:1038E0001847C0467047C04670B500260C4D0D4CB9
:1038F000641BA410A64209D1002600F0BDF80A4DB1
:103900000A4C641BA410A64205D170BDB300EB584D
:1039100098470136EEE7B300EB5898470136F2E7D7
:103920008001002080010020800100209001002003
:1039300010B5034B0100186800F016F810BDC04622
:103940001C010020002310B59A4200D110BDCC5CB0
:10395000C4540133F8E703001218934200D17047B2
:1039600019700133F9E70000F8B50323CD1C9D431E
:10397000083506000C2D1FD20C25A9421ED8300098
:1039800000F069F825490A681400002C1AD1244F68
:103990003B68002B04D12100300000F043F8386070
:1039A0002900300000F03EF8431C2AD10C233000DF
:1039B000336000F051F803E0002DDEDA0C233360B1
:1039C0000020F8BD23685B1B18D40B2B03D92360A0
:1039D000E418256003E06368A2420DD10B6030005B
:1039E00000F03AF8200007220B30231D9043C21A42
:1039F000E7D01B1AA350E4E75360F0E722006468A5
:103A0000C3E70323C41C9C43A042E2D0211A300028
:103A100000F008F8431CDCD1C8E7C046D8080020F5
:103A2000DC080020002370B5064C05000800236068
:103A300000F014F8431C03D12368002B00D02B6046
:103A400070BDC046E40800200023C25C0133002A98
:103A5000FBD1581E7047704770470000044A136836
:103A6000002B03D01818106018007047014BF9E7BD
:103A7000E0080020E8080020F8B5C046F8BC08BC03
:103A80009E467047F8B5C046F8BC08BC9E467047D5
:103A90000000891112239B322446AD573665BF744E
:103AA000488CC19D5AAFD3BE6CCAE5DB7EE9F7F8FE
:103AB0008110080193331A22A5562C47B7753E642E
:103AC000C99C408DDBBF52AEEDDA64CBFFF976E8DE
:103AD00002218B30100299132667AF763444BD550E
:103AE0004AADC3BC588ED19F6EEBE7FA7CC8F5D9BE
:103AF00083310A2091121803A7772E66B5543C45EE
:103B0000CBBD42ACD99E508FEFFB66EAFDD874C99D
:103B100004428D5316619F702004A9153227BB36CD
:103B20004CCEC5DF5EEDD7FC6888E1997AABF3BA7D
:103B300085520C4397711E60A1142805B3373A26AD
:103B4000CDDE44CFDFFD56ECE9986089FBBB72AA5D
:103B500006638F7214409D512225AB343006B9178D
:103B60004EEFC7FE5CCCD5DD6AA9E3B8788AF19B3D
:103B700087730E6295501C41A3352A24B11638076D
:103B8000CFFF46EEDDDC54CDEBB962A8F99A708B1D
:103B9000088481951AA793B62CC2A5D33EE1B7F04D
:103BA0004008C919522BDB3A644EED5F766DFF7CFD
:103BB000899400859BB712A6ADD224C3BFF136E02D
:103BC000C1184809D33B5A2AE55E6C4FF77D7E6CDD
:103BD0000AA583B4188691972EE3A7F23CC0B5D10D
:103BE0004229CB38500AD91B666FEF7E744CFD5DBD
:103BF0008BB502A499961087AFF326E2BDD034C1ED
:103C0000C3394A28D11A580BE77F6E6EF55C7C4D9C
:103C10000CC685D71EE597F42880A1913AA3B3B2CC
:103C2000444ACD5B5669DF78600CE91D722FFB3E7C
:103C30008DD604C79FF516E4A9902081BBB332A2AC
:103C4000C55A4C4BD7795E68E11C680DF33F7A2E5C
:103C50000EE787F61CC495D52AA1A3B03882B1938C
:103C6000466BCF7A5448DD59622DEB3C700EF91F3C
:103C70008FF706E69DD414C5ABB122A0B99230836C
:103C8000C77B4E6AD5585C49E33D6A2CF11E780F1C
:103C9000000219087F00000080000280000E190851
:103CA0003F40000080061080000F19083F700000A0
:103CB00019070180001619081F40000080160680B1
:103CC000001719080F40000080161280001819080C
:103CD0000F80000080161280001919080F80000064
:103CE000801612800000000000000000891E000005
:103CF000B51E0000851E0000A91E00009D1E0000CC
:103D0000ED1E0000D11E00000000000000000000B9
:103D100000000000A72300008D220000D921000030
:103D200041726475696E6F204E616E6F20457665D5
:103D3000727900000403090441726475696E6F2092
:103D40004C4C430012011001020000404123580076
:103D5000000101020301000000000000000000005B
:103D6000ED300000291C0000D32F0000BB2F000005
:103D7000B12F0000DD2F00000B300000852F000068
:103D8000C5310000952F0000812F000000000000C9
:103D900010B572B68122114B92000433934213D3B3
:103DA0000F4A01211000147D0C42FCD02021148BFD
:103DB000FF319B085B0021431183D361094B1380C2
:103DC0000123027D1A42FCD0BFF34F8F064B074AF6
:103DD000DA60BFF34F8FC046FDE7C0460010000019
:103DE0000040004102A5FFFF00ED00E00400FA05DD
:103DF000860101000601010006010000000000002C
:103E00004A544147494345206D6B49490000000031
:103E100000C20100080013040165736172454D562C
:103E20004E20676F72504D564E00000040420F000A
:103E3000FFFFFFFF00C201000000080009040000AE
:103E400001020200000524001001042402060524DA
:103E50000600010524010101070581031000100976
:103E6000040100020A0000000705020240000007EA
:103E70000583024000000000FFFFFFFF000000007C
:103E8000830000000200000082000000000000002B
:103E90000000000000000000000000000000000022
:103EA0000000000040420F00FFFFFFFF2001002044
:103EB0000000000000000000000000000000000002
:103EC00000000000000000000000000000000000F2
:103ED00000000000000000000000000000000000E2
:103EE00000000000000000000000000000000000D2
:103EF00000000000000000000000000000000000C2
:103F000000000000000000000000000000000000B1
:103F1000B5100000C51B00001D200000712F00001F
:103F20008D100000000000000000000000000000F4
:04000003000032AD1A
:00000001FF
