:1000000001C0CEC01124809140008093400083FF46
:1000100004C0282E80E0ACD0F3C0A895229A2A9A7A
:10002000809182128370813019F48CE590E002C0D7
:1000300083E790E0809308089093090881E080931B
:100040000B0883E0809307081092050880EC8093EA
:1000500006088BE08DD0079A87E0815061F0179AEF
:100060002EEC36E5A8959091040897FD05C0215027
:100070003109C1F7F2CFA8950DE983E0D82E6CD0F5
:10008000813461F469D0182F7CD01238D9F011383E
:1000900011F489E001C083E058D054C0823411F4D7
:1000A00084E103C0853419F485E073D04BC08535F5
:1000B00029F452D0C82F50D0D82F43C0863521F410
:1000C00084E067D080E0E8CF8436B9F445D044D0EE
:1000D000182F42D0863411F4D05801C0DC5E3CD0D9
:1000E000888321961150D9F74CD004BFD0920010CC
:1000F000809102108370E1F725C0843791F42CD0F1
:100100002BD0182F29D0F82E3CD086E4F81202C04C
:10011000D05801C0DC5E8881219617D01150D9F7E4
:1001200011C0853751F42DD0809100110ED08091EF
:1001300001110BD080910211AFCF813511F481E014
:1001400017D01FD080E101D09ACF9091040895FF7D
:10015000FCCF8093020808958091040887FFFCCFAC
:10016000909101088091000892FD01C0A895089522
:100170009091010190FDFCCF98ED94BF8093000118
:100180000895EADF803219F081E0F2DFFFCF84E1E9
:10019000DCCFCF93C82FE0DFC150E9F7CF91F1CF8B
:1001A00088ED84BF60930001809102108370E1F7B5
:0201B0000895B0
:0201FE000009F6
:10020000E0E4F0E0808180838091FE019091FF0125
:1002100040E050E064E080E090E0C2DF0C94000039
:00000001FF
