:1000000001C0D9C0112480914000882369F0282FB5
:1000100030E083FD03C02C7F232B31F4809340001C
:100020008CBB80E0B0D0ECC0A895019A099A81E021
:1000300080930102809182128370813061F58CE59A
:1000400090E0809308089093090881E080930B0862
:1000500083E0809307081092050880EC80930608DF
:1000600088E091D0079A87E08150C1F4A8950DE906
:1000700083E0D82E7CD08134E9F479D0182F8CD04D
:1000800081E0123821F089E0113809F083E068D06E
:1000900080E166D0EFCF83E790E0D3CF179A2EECC4
:1000A00036E5A8959091040897FDE1CF21503109DC
:1000B000C1F7DACF823419F484E176D0E9CF853400
:1000C00011F485E0FACF853531F451D0C82F4FD0E7
:1000D000D82F62D0DDCF863521F484E065D080E072
:1000E000D6CF8436B9F443D042D0182F40D08634CE
:1000F00079F4D0583CD0888321961150D9F74CD050
:1001000004BFD0920010809102108370E1F7C0CF3D
:10011000DC5EF0CF843791F42AD029D0182F27D075
:10012000F82E3AD086E4F81207C0D058888121967C
:1001300017D01150D9F7ACCFDC5EF8CF853751F42A
:100140002BD0809100110CD08091011109D08091A9
:1001500002119DCF813509F0BCCF81E014D0B9CF19
:100160009091040895FFFCCF809302080895809138
:10017000040887FFFCCF909101088091000892FD50
:1001800001C0A89508959091010190FDFCCF98EDD4
:1001900094BF809300010895EADF803219F081E076
:1001A000F2DFFFCF84E1DCCFCF93C82FE0DFC15077
:1001B000E9F7CF91F1CF683048F48DE984BF6093BF
:1001C0000010809102108370E1F70895FC014083D4
:0201D000089590
:0201FE000109F5
:00000001FF
