:1000000001C0D7C0112480914000282F30E083FD2B
:1000100003C02C7F232B31F4809340008CBB80E005
:10002000B0D0EEC0A895019A099A81E080930102B0
:10003000809182128370813029F58CE590E0809365
:1000400008089093090881E080930B0883E080936F
:1000500007081092050880EC8093060888E091D08C
:10006000079A87E0815089F4A8950DE983E0D82E9E
:100070007CD08134F1F479D0182F8CD0123889F4E7
:1000800080E013C083E790E0DACF179A2EEC36E5D4
:10009000A8959091040897FDE8CF21503109C1F748
:1000A000E1CF89E0113809F083E058D080E156D0E3
:1000B000DFCF823419F484E175D0F8CF853411F4A0
:1000C00085E0FACF853531F450D0C82F4ED0D82FE7
:1000D00061D0ECCF863519F484E064D0D1CF84367A
:1000E000B9F443D042D0182F40D0863479F4D05898
:1000F0003CD0888321961150D9F74CD004BFD092C0
:100100000010809102108370E1F7D0CFDC5EF0CF59
:10011000843791F42AD029D0182F27D0F82E3AD03E
:1001200086E4F81207C0D0588881219617D0115064
:10013000D9F7BCCFDC5EF8CF853751F42BD0809156
:1001400000110CD08091011109D080910211ADCF26
:10015000813509F0BDCF81E014D0BACF9091040869
:1001600095FFFCCF8093020808958091040887FFD3
:10017000FCCF909101088091000892FD01C0A895E4
:1001800008959091010190FDFCCF98ED94BF80936C
:1001900000010895EADF803219F081E0F2DFFFCF3D
:1001A00084E1DCCFCF93C82FE0DFC150E9F7CF91D6
:1001B000F1CF8DE984BF60930010809102108370AD
:0401C000E1F70895C6
:0201FE000009F6
:00000001FF
