:100000001124669A26E030E408C000000197E9F761
:100010008DB183278DB9215019F081E091E7F6CF9A
:1000200080911F138B3E69F48FEF80931F138DE92E
:1000300093E084BF909300108091021081FDFCCF6B
:1000400006C082E080930110E0E0F1E0099580ECC9
:1000500080930608A09123110A2E000CBB0BBC5FF5
:100060002CE530E00E9476007E5F8F4F9F4F2AE0A4
:1000700095958795779567952A95D1F760930808A8
:10008000709309088091E20581608093E205049AEB
:10009000E0E0F2E42DE933E040E41EC08091040882
:1000A00087FFFCCF80910008E11552E4F50711F4B9
:1000B000882391F0809302088193CF018F7799274D
:1000C000892B51F424BF309300108091021080FDE1
:1000D000FCCF8DB184278DB9CF0190548115904C00
:1000E000E8F288ED91E084BF909341000E947D008A
:1000F000B7FF0895821B930B0895A29FB001B39F91
:10010000C001A39F700D811D1124911DB29F700D20
:08011000811D1124911D0895C9
:02000004008278
:00000001FF
